:100000000C9458000C9480000C9480000C94800098
:100010000C9480000C9480000C9480000C94800060
:100020000C9480000C9480000C9480000C94800050
:100030000C9480000C9480000C9480000C94800040
:100040000C94A4020C9480000C9472020C944C0248
:100050000C9480000C9480000C9480000C94800020
:100060000C9480000C948000000000002300260007
:10007000290004040404040404040202020202022B
:10008000030303030303010204081020408001025C
:1000900004081020010204081020000000080002DB
:1000A0000100000304070000000000000000A60497
:1000B00011241FBECFEFD8E0DEBFCDBF11E0A0E01E
:1000C000B1E0E6E3FDE002C005900D92A631B10774
:1000D000D9F721E0A6E1B1E001C01D92AC3BB20727
:1000E000E1F710E0C8E5D0E004C02197FE010E94CE
:1000F0009306C735D107C9F70E94EE020C94990602
:100100000C940000AF92BF92CF92DF92EF92FF92D9
:100110000F931F93CF93DF936C017B018B01040F2F
:10012000151FEB015E01AE18BF08C017D10759F0CB
:100130006991D601ED91FC910190F081E02DC6010D
:100140000995892B79F7C501DF91CF911F910F9107
:10015000FF90EF90DF90CF90BF90AF900895FC019B
:10016000538D448D252F30E0842F90E0821B930B1C
:10017000541710F0CF96089501970895FC01918DC2
:10018000828D981761F0A28DAE0FBF2FB11D5D96C5
:100190008C91928D9F5F9F73928F90E008958FEF67
:1001A0009FEF0895FC01918D828D981731F0828D1B
:1001B000E80FF11D858D90E008958FEF9FEF089572
:1001C000FC01918D228D892F90E0805C9F4F821BD6
:1001D00091098F73992708958FE191E00E94E000C3
:1001E00021E0892B09F420E0822F089580E090E03F
:1001F000892B29F00E94EC0081110C9400000895D5
:10020000FC01A48DA80FB92FB11DA35ABF4F2C918B
:10021000848D90E001968F739927848FA689B78982
:100220002C93A089B1898C91837080648C93938D79
:10023000848D981306C00288F389E02D80818F7D1C
:1002400080830895EF92FF920F931F93CF93DF93D4
:10025000EC0181E0888F9B8D8C8D98131AC0E88902
:10026000F989808185FF15C09FB7F894EE89FF89D1
:100270006083E889F98980818370806480839FBF6F
:1002800081E090E0DF91CF911F910F91FF90EF906F
:100290000895F62E0B8D10E00F5F1F4F0F7311277F
:1002A000E02E8C8D8E110CC00FB607FCFACFE889BA
:1002B000F989808185FFF5CFCE010E940001F1CF41
:1002C000EB8DEC0FFD2FF11DE35AFF4FF0829FB72E
:1002D000F8940B8FEA89FB8980818062CFCFCF931E
:1002E000DF93EC01888D8823B9F0AA89BB89E8895E
:1002F000F9898C9185FD03C0808186FD0DC00FB604
:1003000007FCF7CF8C9185FFF2CF808185FFEDCF81
:10031000CE010E940001E9CFDF91CF91089590E0D6
:10032000FC01E656FF4F2491FC01EA57FF4F349140
:10033000FC01EE58FF4FE491EE23C1F1222339F086
:100340002330E9F090F4213001F1223011F1F0E096
:10035000EE0FFF1FE859FF4FA591B491EC91E323F5
:1003600081E090E029F580E008952730A9F0283059
:10037000C9F0243061F7809180008F7D03C08091A7
:1003800080008F7780938000E2CF84B58F7784BD23
:10039000DECF84B58F7DFBCF8091B0008F778093C7
:1003A000B000D5CF8091B0008F7DF9CF80E090E094
:1003B00008953FB7F89480911B0190911C01A09182
:1003C0001D01B0911E0126B5A89B05C02F3F19F055
:1003D0000196A11DB11D3FBFBA2FA92F982F8827C5
:1003E000BC01CD01620F711D811D911D42E0660FA0
:1003F000771F881F991F4A95D1F708958F929F9272
:10040000AF92BF920F931F93CF93DF93CDB7DEB719
:10041000A1970FB6F894DEBF0FBECDBF19A2423030
:1004200008F44AE08E010F5D1F4F842E912CB12CF1
:10043000A12CA50194010E947106E62FB901CA0101
:10044000EA3044F5E05DD801EE938D01232B242B97
:10045000252B79F790E080E0109769F0FD0101907D
:100460000020E9F73197AF014A1B5B0BBD018FE11B
:1004700091E00E948200A1960FB6F894DEBF0FBEF5
:10048000CDBFDF91CF911F910F91BF90AF909F9003
:100490008F900895E95CD7CF1F920F920FB60F92FD
:1004A00011242F933F934F935F936F937F938F9379
:1004B0009F93AF93BF93EF93FF938FE191E00E94DF
:1004C0000001FF91EF91BF91AF919F918F917F912B
:1004D0006F915F914F913F912F910F900FBE0F90B1
:1004E0001F9018951F920F920FB60F9211242F9301
:1004F0008F939F93EF93FF93E0912F01F091300141
:100500008081E0913501F091360182FD1BC0908120
:10051000809138018F5F8F7320913901821741F0EC
:10052000E0913801F0E0E15EFE4F958F8093380155
:10053000FF91EF919F918F912F910F900FBE0F9090
:100540001F9018958081F4CF1F920F920FB60F92D3
:1005500011242F933F938F939F93AF93BF938091D9
:10056000170190911801A0911901B0911A013091D1
:10057000160123E0230F2D3758F50196A11DB11D5B
:10058000209316018093170190931801A0931901ED
:10059000B0931A0180911B0190911C01A0911D0143
:1005A000B0911E010196A11DB11D80931B01909376
:1005B0001C01A0931D01B0931E01BF91AF919F91AB
:1005C0008F913F912F910F900FBE0F901F90189514
:1005D00026E8230F0296A11DB11DD2CFCF93DF9342
:1005E00000D000D0CDB7DEB7789484B5826084BDEA
:1005F00084B5816084BD85B5826085BD85B5816027
:1006000085BD80916E00816080936E0010928100A4
:10061000809181008260809381008091810081605F
:100620008093810080918000816080938000809120
:10063000B10084608093B1008091B00081608093AC
:10064000B00080917A00846080937A0080917A0073
:10065000826080937A0080917A00816080937A0032
:1006600080917A00806880937A001092C100E091B6
:100670002F01F091300182E08083E0912B01F09115
:100680002C011082E0912D01F0912E018FEC8083DE
:1006900010923701E0913301F091340186E08083BC
:1006A000E0913101F0913201808180618083E0919D
:1006B0003101F0913201808188608083E0913101C5
:1006C000F0913201808180688083E0913101F09166
:1006D000320180818F7D808383E00E948F014C01F5
:1006E00084E00E948F015C0185E00E948F016C0113
:1006F00086E00E948F017C0187E00E948F018C01BF
:1007000088E00E948F019C838B8389E00E948F0187
:100710001C018AE00E948F019A83898361E070E066
:10072000AB2811F470E060E0072E000C880B990BE9
:100730000E9478059B01AC010E94D4042B013C016E
:1007400061E070E0892811F470E060E0072E000C91
:10075000880B990B0E9478059B01AC01C301B20183
:100760000E94D4044B015C0161E070E0CD2811F4DB
:1007700070E060E0072E000C880B990B0E94780552
:1007800020E030E040E850E40E9404069B01AC0108
:10079000C501B4010E94D4044B015C0161E070E02A
:1007A000EF2811F470E060E0072E000C880B990B25
:1007B0000E94780520E030E040E051E40E94040609
:1007C0009B01AC01C501B4010E94D4046B017C0102
:1007D00061E070E0012B11F470E060E0072E000C86
:1007E000880B990B0E94780520E030E040E851E446
:1007F0000E9404069B01AC01C701B6010E94D4040B
:100800006B017C0161E070E08B819C81892B11F48C
:1008100070E060E0072E000C880B990B0E947805B1
:1008200020E030E040E052E40E9404069B01AC016D
:10083000C701B6010E94D4046B017C0161E070E045
:10084000232811F470E060E0072E000C880B990B50
:100850000E94780520E030E040E852E40E9404065F
:100860009B01AC01C701B6010E94D4046B017C015D
:1008700061E070E089819A81892B11F470E060E079
:10088000072E000C880B990B0E94780520E030E0C1
:1008900040E053E40E9404069B01AC01C701B6018D
:1008A0000E94D4040E9440056B01770FEE08FF08F8
:1008B0004AE0C701B601F7FE0DC06DE28FE191E09D
:1008C0000E94220166277727CB016C197D098E09CA
:1008D0009F094AE00E94FE0142E050E062E171E0BF
:1008E0008FE191E00E9482000E94D9014B015C01DE
:1008F0008CE2C82EDD24D394E12CF12C0E94D90186
:10090000681979098A099B09683E73408105910538
:10091000A8F391E0C91AD108E108F10828EE820E87
:1009200023E0921EA11CB11CC114D104E104F10406
:1009300029F780E090E0892B09F4CECE0E94EC00EC
:10094000882309F4C9CE0E940000C6CEEFE1F1E091
:100950001382128288EE93E0A0E0B0E08483958356
:10096000A683B78384E091E09183808385EC90E057
:100970009587848784EC90E09787868780EC90E069
:10098000918B808B81EC90E0938B828B82EC90E05A
:10099000958B848B86EC90E0978B868B118E128ED4
:1009A000138E148E08955058BB27AA270E94EB047B
:1009B0000C94CA050E94BC0538F00E94C30520F0C3
:1009C00039F49F3F19F426F40C94B9050EF4E09520
:1009D000E7FB0C94B305E92F0E94DB0558F3BA1727
:1009E000620773078407950720F079F4A6F50C9445
:1009F000FD050EF4E0950B2EBA2FA02D0B01B901C9
:100A000090010C01CA01A0011124FF27591B99F084
:100A1000593F50F4503E68F11A16F040A22F232F90
:100A2000342F4427585FF3CF469537952795A795E0
:100A3000F0405395C9F77EF41F16BA0B620B730B87
:100A4000840BBAF09150A1F0FF0FBB1F661F771FF8
:100A5000881FC2F70EC0BA0F621F731F841F48F4AD
:100A6000879577956795B795F7959E3F08F0B0CF36
:100A70009395880F08F09927EE0F9795879508951D
:100A80000E9447056894B1110C94FE0508950E94D8
:100A9000E30588F09F5798F0B92F9927B751B0F028
:100AA000E1F0660F771F881F991F1AF0BA95C9F7F2
:100AB00014C0B13091F00E94FD05B1E008950C948E
:100AC000FD05672F782F8827B85F39F0B93FCCF341
:100AD000869577956795B395D9F73EF4909580956F
:100AE000709561957F4F8F4F9F4F0895E89409C08F
:100AF00097FB3EF490958095709561957F4F8F4F51
:100B00009F4F9923A9F0F92F96E9BB279395F69566
:100B1000879577956795B795F111F8CFFAF4BB0FE4
:100B200011F460FF1BC06F5F7F4F8F4F9F4F16C048
:100B3000882311F096E911C0772321F09EE8872FD2
:100B4000762F05C0662371F096E8862F70E060E08E
:100B50002AF09A95660F771F881FDAF7880F969507
:100B6000879597F9089597F99F6780E870E060E0AE
:100B700008959FEF80EC089500240A941616170636
:100B800018060906089500240A941216130614067E
:100B900005060895092E0394000C11F4882352F0E1
:100BA000BB0F40F4BF2B11F460FF04C06F5F7F4F99
:100BB0008F4F9F4F089557FD9058440F551F59F080
:100BC0005F3F71F04795880F97FB991F61F09F3F3A
:100BD00079F087950895121613061406551FF2CF63
:100BE0004695F1DF08C0161617061806991FF1CFB3
:100BF00086957105610508940895E894BB276627DA
:100C00007727CB0197F908950E9417060C94CA051F
:100C10000E94BC0538F00E94C30520F0952311F016
:100C20000C94B3050C94B90511240C94FE050E9494
:100C3000DB0570F3959FC1F3950F50E0551F629F40
:100C4000F001729FBB27F00DB11D639FAA27F00D25
:100C5000B11DAA1F649F6627B00DA11D661F829F4C
:100C60002227B00DA11D621F739FB00DA11D621F31
:100C7000839FA00D611D221F749F3327A00D611D4E
:100C8000231F849F600D211D822F762F6A2F112430
:100C90009F5750409AF0F1F088234AF0EE0FFF1F63
:100CA000BB1F661F771F881F91505040A9F79E3FBA
:100CB000510580F00C94B3050C94FE055F3FE4F3FE
:100CC000983ED4F3869577956795B795F795E79510
:100CD0009F5FC1F7FE2B880F911D9695879597F919
:100CE0000895A1E21A2EAA1BBB1BFD010DC0AA1F6D
:100CF000BB1FEE1FFF1FA217B307E407F50720F085
:100D0000A21BB30BE40BF50B661F771F881F991FFF
:100D10001A9469F760957095809590959B01AC0148
:100D2000BD01CF010895EE0FFF1F0590F491E02D56
:060D30000994F894FFCFC6
:100D36000000000022018200AF006F01E000BE004B
:060D4600D2000D0A0000BE
:107E0000112484B714BE81FFF0D085E080938100F7
:107E100082E08093C00088E18093C10086E0809377
:107E2000C20080E18093C4008EE0C9D0259A86E02C
:107E300020E33CEF91E0309385002093840096BBD3
:107E4000B09BFECF1D9AA8958150A9F7CC24DD24C4
:107E500088248394B5E0AB2EA1E19A2EF3E0BF2EE7
:107E6000A2D0813461F49FD0082FAFD0023811F036
:107E7000013811F484E001C083E08DD089C08234E0
:107E800011F484E103C0853419F485E0A6D080C0E4
:107E9000853579F488D0E82EFF2485D0082F10E0AE
:107EA000102F00270E291F29000F111F8ED06801E7
:107EB0006FC0863521F484E090D080E0DECF843638
:107EC00009F040C070D06FD0082F6DD080E0C81688
:107ED00080E7D80618F4F601B7BEE895C0E0D1E017
:107EE00062D089930C17E1F7F0E0CF16F0E7DF06D8
:107EF00018F0F601B7BEE89568D007B600FCFDCFD4
:107F0000A601A0E0B1E02C9130E011968C91119780
:107F100090E0982F8827822B932B1296FA010C0160
:107F200087BEE89511244E5F5F4FF1E0A038BF0790
:107F300051F7F601A7BEE89507B600FCFDCF97BE46
:107F4000E89526C08437B1F42ED02DD0F82E2BD052
:107F50003CD0F601EF2C8F010F5F1F4F84911BD097
:107F6000EA94F801C1F70894C11CD11CFA94CF0C13
:107F7000D11C0EC0853739F428D08EE10CD085E9AC
:107F80000AD08FE07ACF813511F488E018D01DD067
:107F900080E101D065CF982F8091C00085FFFCCF94
:107FA0009093C60008958091C00087FFFCCF809118
:107FB000C00084FD01C0A8958091C6000895E0E648
:107FC000F0E098E1908380830895EDDF803219F02E
:107FD00088E0F5DFFFCF84E1DECF1F93182FE3DFCA
:107FE0001150E9F7F2DF1F91089580E0E8DFEE27F6
:047FF000FF270994CA
:027FFE00040479
:0400000300007E007B
:00000001FF
